{
  "contractName": "Alpha",
  "abi": [
    {
      "inputs": [],
      "stateMutability": "nonpayable",
      "type": "constructor"
    },
    {
      "anonymous": false,
      "inputs": [
        {
          "indexed": true,
          "internalType": "address",
          "name": "owner",
          "type": "address"
        },
        {
          "indexed": true,
          "internalType": "address",
          "name": "spender",
          "type": "address"
        },
        {
          "indexed": false,
          "internalType": "uint256",
          "name": "value",
          "type": "uint256"
        }
      ],
      "name": "Approval",
      "type": "event"
    },
    {
      "anonymous": false,
      "inputs": [
        {
          "indexed": true,
          "internalType": "address",
          "name": "previousOwner",
          "type": "address"
        },
        {
          "indexed": true,
          "internalType": "address",
          "name": "newOwner",
          "type": "address"
        }
      ],
      "name": "OwnershipTransferred",
      "type": "event"
    },
    {
      "anonymous": false,
      "inputs": [
        {
          "indexed": false,
          "internalType": "address",
          "name": "account",
          "type": "address"
        }
      ],
      "name": "Paused",
      "type": "event"
    },
    {
      "anonymous": false,
      "inputs": [
        {
          "indexed": true,
          "internalType": "address",
          "name": "from",
          "type": "address"
        },
        {
          "indexed": true,
          "internalType": "address",
          "name": "to",
          "type": "address"
        },
        {
          "indexed": false,
          "internalType": "uint256",
          "name": "value",
          "type": "uint256"
        }
      ],
      "name": "Transfer",
      "type": "event"
    },
    {
      "anonymous": false,
      "inputs": [
        {
          "indexed": false,
          "internalType": "address",
          "name": "account",
          "type": "address"
        }
      ],
      "name": "Unpaused",
      "type": "event"
    },
    {
      "inputs": [],
      "name": "ALLOWER",
      "outputs": [
        {
          "internalType": "address",
          "name": "",
          "type": "address"
        }
      ],
      "stateMutability": "view",
      "type": "function"
    },
    {
      "inputs": [
        {
          "internalType": "address",
          "name": "owner",
          "type": "address"
        },
        {
          "internalType": "address",
          "name": "spender",
          "type": "address"
        }
      ],
      "name": "allowance",
      "outputs": [
        {
          "internalType": "uint256",
          "name": "",
          "type": "uint256"
        }
      ],
      "stateMutability": "view",
      "type": "function"
    },
    {
      "inputs": [
        {
          "internalType": "address",
          "name": "account",
          "type": "address"
        }
      ],
      "name": "balanceOf",
      "outputs": [
        {
          "internalType": "uint256",
          "name": "",
          "type": "uint256"
        }
      ],
      "stateMutability": "view",
      "type": "function"
    },
    {
      "inputs": [
        {
          "internalType": "uint256",
          "name": "amount",
          "type": "uint256"
        }
      ],
      "name": "burn",
      "outputs": [],
      "stateMutability": "nonpayable",
      "type": "function"
    },
    {
      "inputs": [
        {
          "internalType": "address",
          "name": "account",
          "type": "address"
        },
        {
          "internalType": "uint256",
          "name": "amount",
          "type": "uint256"
        }
      ],
      "name": "burnFrom",
      "outputs": [],
      "stateMutability": "nonpayable",
      "type": "function"
    },
    {
      "inputs": [],
      "name": "decimals",
      "outputs": [
        {
          "internalType": "uint8",
          "name": "",
          "type": "uint8"
        }
      ],
      "stateMutability": "view",
      "type": "function"
    },
    {
      "inputs": [
        {
          "internalType": "address",
          "name": "spender",
          "type": "address"
        },
        {
          "internalType": "uint256",
          "name": "subtractedValue",
          "type": "uint256"
        }
      ],
      "name": "decreaseAllowance",
      "outputs": [
        {
          "internalType": "bool",
          "name": "",
          "type": "bool"
        }
      ],
      "stateMutability": "nonpayable",
      "type": "function"
    },
    {
      "inputs": [
        {
          "internalType": "address",
          "name": "spender",
          "type": "address"
        },
        {
          "internalType": "uint256",
          "name": "addedValue",
          "type": "uint256"
        }
      ],
      "name": "increaseAllowance",
      "outputs": [
        {
          "internalType": "bool",
          "name": "",
          "type": "bool"
        }
      ],
      "stateMutability": "nonpayable",
      "type": "function"
    },
    {
      "inputs": [
        {
          "internalType": "address",
          "name": "",
          "type": "address"
        }
      ],
      "name": "members",
      "outputs": [
        {
          "internalType": "address",
          "name": "memberAddress",
          "type": "address"
        },
        {
          "internalType": "uint256",
          "name": "amountReceivable",
          "type": "uint256"
        },
        {
          "internalType": "bool",
          "name": "tokenReceived",
          "type": "bool"
        }
      ],
      "stateMutability": "view",
      "type": "function"
    },
    {
      "inputs": [],
      "name": "name",
      "outputs": [
        {
          "internalType": "string",
          "name": "",
          "type": "string"
        }
      ],
      "stateMutability": "view",
      "type": "function"
    },
    {
      "inputs": [],
      "name": "owner",
      "outputs": [
        {
          "internalType": "address",
          "name": "",
          "type": "address"
        }
      ],
      "stateMutability": "view",
      "type": "function"
    },
    {
      "inputs": [],
      "name": "paused",
      "outputs": [
        {
          "internalType": "bool",
          "name": "",
          "type": "bool"
        }
      ],
      "stateMutability": "view",
      "type": "function"
    },
    {
      "inputs": [],
      "name": "renounceOwnership",
      "outputs": [],
      "stateMutability": "nonpayable",
      "type": "function"
    },
    {
      "inputs": [],
      "name": "symbol",
      "outputs": [
        {
          "internalType": "string",
          "name": "",
          "type": "string"
        }
      ],
      "stateMutability": "view",
      "type": "function"
    },
    {
      "inputs": [
        {
          "internalType": "uint256",
          "name": "",
          "type": "uint256"
        }
      ],
      "name": "toReceiveTokens",
      "outputs": [
        {
          "internalType": "address",
          "name": "",
          "type": "address"
        }
      ],
      "stateMutability": "view",
      "type": "function"
    },
    {
      "inputs": [],
      "name": "totalSupply",
      "outputs": [
        {
          "internalType": "uint256",
          "name": "",
          "type": "uint256"
        }
      ],
      "stateMutability": "view",
      "type": "function"
    },
    {
      "inputs": [
        {
          "internalType": "address",
          "name": "recipient",
          "type": "address"
        },
        {
          "internalType": "uint256",
          "name": "amount",
          "type": "uint256"
        }
      ],
      "name": "transfer",
      "outputs": [
        {
          "internalType": "bool",
          "name": "",
          "type": "bool"
        }
      ],
      "stateMutability": "nonpayable",
      "type": "function"
    },
    {
      "inputs": [
        {
          "internalType": "address",
          "name": "sender",
          "type": "address"
        },
        {
          "internalType": "address",
          "name": "recipient",
          "type": "address"
        },
        {
          "internalType": "uint256",
          "name": "amount",
          "type": "uint256"
        }
      ],
      "name": "transferFrom",
      "outputs": [
        {
          "internalType": "bool",
          "name": "",
          "type": "bool"
        }
      ],
      "stateMutability": "nonpayable",
      "type": "function"
    },
    {
      "inputs": [
        {
          "internalType": "address",
          "name": "newOwner",
          "type": "address"
        }
      ],
      "name": "transferOwnership",
      "outputs": [],
      "stateMutability": "nonpayable",
      "type": "function"
    },
    {
      "inputs": [
        {
          "internalType": "address",
          "name": "",
          "type": "address"
        }
      ],
      "name": "whitelistedAddresses",
      "outputs": [
        {
          "internalType": "bool",
          "name": "",
          "type": "bool"
        }
      ],
      "stateMutability": "view",
      "type": "function"
    },
    {
      "inputs": [
        {
          "internalType": "address",
          "name": "spender",
          "type": "address"
        },
        {
          "internalType": "uint256",
          "name": "amount",
          "type": "uint256"
        }
      ],
      "name": "approve",
      "outputs": [
        {
          "internalType": "bool",
          "name": "",
          "type": "bool"
        }
      ],
      "stateMutability": "nonpayable",
      "type": "function"
    },
    {
      "inputs": [],
      "name": "viewToReceiveTokens",
      "outputs": [
        {
          "internalType": "address[]",
          "name": "",
          "type": "address[]"
        }
      ],
      "stateMutability": "view",
      "type": "function"
    },
    {
      "inputs": [],
      "name": "tokenClaim",
      "outputs": [
        {
          "internalType": "bool",
          "name": "",
          "type": "bool"
        }
      ],
      "stateMutability": "nonpayable",
      "type": "function"
    },
    {
      "inputs": [],
      "name": "pause",
      "outputs": [],
      "stateMutability": "nonpayable",
      "type": "function"
    },
    {
      "inputs": [],
      "name": "unpause",
      "outputs": [],
      "stateMutability": "nonpayable",
      "type": "function"
    },
    {
      "inputs": [
        {
          "internalType": "address",
          "name": "to",
          "type": "address"
        },
        {
          "internalType": "uint256",
          "name": "amount",
          "type": "uint256"
        }
      ],
      "name": "mint",
      "outputs": [],
      "stateMutability": "nonpayable",
      "type": "function"
    }
  ],
  "bytecode": "0x60806040523480156200001157600080fd5b506040518060400160405280600581526020017f416c7068610000000000000000000000000000000000000000000000000000008152506040518060400160405280600381526020017f414c4600000000000000000000000000000000000000000000000000000000008152508160039080519060200190620000969291906200041f565b508060049080519060200190620000af9291906200041f565b5050506000600560006101000a81548160ff021916908315150217905550620000ed620000e16200014760201b60201c565b6200014f60201b60201c565b620001003360966200021560201b60201c565b33600660006101000a81548173ffffffffffffffffffffffffffffffffffffffff021916908373ffffffffffffffffffffffffffffffffffffffff160217905550620006ed565b600033905090565b6000600560019054906101000a900473ffffffffffffffffffffffffffffffffffffffff16905081600560016101000a81548173ffffffffffffffffffffffffffffffffffffffff021916908373ffffffffffffffffffffffffffffffffffffffff1602179055508173ffffffffffffffffffffffffffffffffffffffff168173ffffffffffffffffffffffffffffffffffffffff167f8be0079c531659141344cd1fd0a4f28419497f9722a3daafe3b4186f6b6457e060405160405180910390a35050565b600073ffffffffffffffffffffffffffffffffffffffff168273ffffffffffffffffffffffffffffffffffffffff16141562000288576040517f08c379a00000000000000000000000000000000000000000000000000000000081526004016200027f9062000530565b60405180910390fd5b6200029c600083836200038e60201b60201c565b8060026000828254620002b091906200058b565b92505081905550806000808473ffffffffffffffffffffffffffffffffffffffff1673ffffffffffffffffffffffffffffffffffffffff16815260200190815260200160002060008282546200030791906200058b565b925050819055508173ffffffffffffffffffffffffffffffffffffffff16600073ffffffffffffffffffffffffffffffffffffffff167fddf252ad1be2c89b69c2b068fc378daa952ba7f163c4a11628f55a4df523b3ef836040516200036e9190620005f9565b60405180910390a36200038a60008383620003fe60201b60201c565b5050565b6200039e6200040360201b60201c565b15620003e1576040517f08c379a0000000000000000000000000000000000000000000000000000000008152600401620003d89062000666565b60405180910390fd5b620003f98383836200041a60201b620012a01760201c565b505050565b505050565b6000600560009054906101000a900460ff16905090565b505050565b8280546200042d90620006b7565b90600052602060002090601f0160209004810192826200045157600085556200049d565b82601f106200046c57805160ff19168380011785556200049d565b828001600101855582156200049d579182015b828111156200049c5782518255916020019190600101906200047f565b5b509050620004ac9190620004b0565b5090565b5b80821115620004cb576000816000905550600101620004b1565b5090565b600082825260208201905092915050565b7f45524332303a206d696e7420746f20746865207a65726f206164647265737300600082015250565b600062000518601f83620004cf565b91506200052582620004e0565b602082019050919050565b600060208201905081810360008301526200054b8162000509565b9050919050565b6000819050919050565b7f4e487b7100000000000000000000000000000000000000000000000000000000600052601160045260246000fd5b6000620005988262000552565b9150620005a58362000552565b9250827fffffffffffffffffffffffffffffffffffffffffffffffffffffffffffffffff03821115620005dd57620005dc6200055c565b5b828201905092915050565b620005f38162000552565b82525050565b6000602082019050620006106000830184620005e8565b92915050565b7f5061757361626c653a2070617573656400000000000000000000000000000000600082015250565b60006200064e601083620004cf565b91506200065b8262000616565b602082019050919050565b6000602082019050818103600083015262000681816200063f565b9050919050565b7f4e487b7100000000000000000000000000000000000000000000000000000000600052602260045260246000fd5b60006002820490506001821680620006d057607f821691505b60208210811415620006e757620006e662000688565b5b50919050565b612b2d80620006fd6000396000f3fe608060405234801561001057600080fd5b506004361061018e5760003560e01c8063715018a6116100de5780639110c44e11610097578063a9059cbb11610071578063a9059cbb14610477578063dd62ed3e146104a7578063e200a37f146104d7578063f2fde38b146104f55761018e565b80639110c44e146103f957806395d89b4114610429578063a457c2d7146104475761018e565b8063715018a61461036f578063745b86191461037957806379cc6790146103975780637e61376d146103b35780638456cb59146103d15780638da5cb5b146103db5761018e565b8063313ce5671161014b57806340c10f191161012557806340c10f19146102e957806342966c68146103055780635c975abb1461032157806370a082311461033f5761018e565b8063313ce5671461029157806339509351146102af5780633f4ba83a146102df5761018e565b806306c933d81461019357806306fdde03146101c357806308ae4b0c146101e1578063095ea7b31461021357806318160ddd1461024357806323b872dd14610261575b600080fd5b6101ad60048036038101906101a89190611d19565b610511565b6040516101ba9190611d61565b60405180910390f35b6101cb610531565b6040516101d89190611e15565b60405180910390f35b6101fb60048036038101906101f69190611d19565b6105c3565b60405161020a93929190611e5f565b60405180910390f35b61022d60048036038101906102289190611ec2565b61061a565b60405161023a9190611d61565b60405180910390f35b61024b610827565b6040516102589190611f02565b60405180910390f35b61027b60048036038101906102769190611f1d565b610831565b6040516102889190611d61565b60405180910390f35b610299610929565b6040516102a69190611f8c565b60405180910390f35b6102c960048036038101906102c49190611ec2565b610932565b6040516102d69190611d61565b60405180910390f35b6102e76109de565b005b61030360048036038101906102fe9190611ec2565b610a64565b005b61031f600480360381019061031a9190611fa7565b610aee565b005b610329610b02565b6040516103369190611d61565b60405180910390f35b61035960048036038101906103549190611d19565b610b19565b6040516103669190611f02565b60405180910390f35b610377610b61565b005b610381610be9565b60405161038e9190611fd4565b60405180910390f35b6103b160048036038101906103ac9190611ec2565b610c0f565b005b6103bb610c8a565b6040516103c89190611d61565b60405180910390f35b6103d9610e09565b005b6103e3610e8f565b6040516103f09190611fd4565b60405180910390f35b610413600480360381019061040e9190611fa7565b610eb9565b6040516104209190611fd4565b60405180910390f35b610431610ef8565b60405161043e9190611e15565b60405180910390f35b610461600480360381019061045c9190611ec2565b610f8a565b60405161046e9190611d61565b60405180910390f35b610491600480360381019061048c9190611ec2565b611075565b60405161049e9190611d61565b60405180910390f35b6104c160048036038101906104bc9190611fef565b611093565b6040516104ce9190611f02565b60405180910390f35b6104df61111a565b6040516104ec91906120ed565b60405180910390f35b61050f600480360381019061050a9190611d19565b6111a8565b005b60086020528060005260406000206000915054906101000a900460ff1681565b6060600380546105409061213e565b80601f016020809104026020016040519081016040528092919081815260200182805461056c9061213e565b80156105b95780601f1061058e576101008083540402835291602001916105b9565b820191906000526020600020905b81548152906001019060200180831161059c57829003601f168201915b5050505050905090565b60076020528060005260406000206000915090508060000160009054906101000a900473ffffffffffffffffffffffffffffffffffffffff16908060010154908060020160009054906101000a900460ff16905083565b60006106246112a5565b73ffffffffffffffffffffffffffffffffffffffff16610642610e8f565b73ffffffffffffffffffffffffffffffffffffffff1614610698576040517f08c379a000000000000000000000000000000000000000000000000000000000815260040161068f906121bc565b60405180910390fd5b6106aa6106a36112a5565b84846112ad565b6106b48383611478565b506000600760008573ffffffffffffffffffffffffffffffffffffffff1673ffffffffffffffffffffffffffffffffffffffff1681526020019081526020016000209050838160000160006101000a81548173ffffffffffffffffffffffffffffffffffffffff021916908373ffffffffffffffffffffffffffffffffffffffff16021790555082816001018190555060008160020160006101000a81548160ff0219169083151502179055506001600860008673ffffffffffffffffffffffffffffffffffffffff1673ffffffffffffffffffffffffffffffffffffffff16815260200190815260200160002060006101000a81548160ff0219169083151502179055506009849080600181540180825580915050600190039060005260206000200160009091909190916101000a81548173ffffffffffffffffffffffffffffffffffffffff021916908373ffffffffffffffffffffffffffffffffffffffff160217905550600191505092915050565b6000600254905090565b600061083e848484611496565b6000600160008673ffffffffffffffffffffffffffffffffffffffff1673ffffffffffffffffffffffffffffffffffffffff16815260200190815260200160002060006108896112a5565b73ffffffffffffffffffffffffffffffffffffffff1673ffffffffffffffffffffffffffffffffffffffff16815260200190815260200160002054905082811015610909576040517f08c379a00000000000000000000000000000000000000000000000000000000081526004016109009061224e565b60405180910390fd5b61091d856109156112a5565b8584036112ad565b60019150509392505050565b60006012905090565b60006109d461093f6112a5565b84846001600061094d6112a5565b73ffffffffffffffffffffffffffffffffffffffff1673ffffffffffffffffffffffffffffffffffffffff16815260200190815260200160002060008873ffffffffffffffffffffffffffffffffffffffff1673ffffffffffffffffffffffffffffffffffffffff168152602001908152602001600020546109cf919061229d565b6112ad565b6001905092915050565b6109e66112a5565b73ffffffffffffffffffffffffffffffffffffffff16610a04610e8f565b73ffffffffffffffffffffffffffffffffffffffff1614610a5a576040517f08c379a0000000000000000000000000000000000000000000000000000000008152600401610a51906121bc565b60405180910390fd5b610a62611717565b565b610a6c6112a5565b73ffffffffffffffffffffffffffffffffffffffff16610a8a610e8f565b73ffffffffffffffffffffffffffffffffffffffff1614610ae0576040517f08c379a0000000000000000000000000000000000000000000000000000000008152600401610ad7906121bc565b60405180910390fd5b610aea82826117b9565b5050565b610aff610af96112a5565b82611919565b50565b6000600560009054906101000a900460ff16905090565b60008060008373ffffffffffffffffffffffffffffffffffffffff1673ffffffffffffffffffffffffffffffffffffffff168152602001908152602001600020549050919050565b610b696112a5565b73ffffffffffffffffffffffffffffffffffffffff16610b87610e8f565b73ffffffffffffffffffffffffffffffffffffffff1614610bdd576040517f08c379a0000000000000000000000000000000000000000000000000000000008152600401610bd4906121bc565b60405180910390fd5b610be76000611af0565b565b600660009054906101000a900473ffffffffffffffffffffffffffffffffffffffff1681565b6000610c2283610c1d6112a5565b611093565b905081811015610c67576040517f08c379a0000000000000000000000000000000000000000000000000000000008152600401610c5e90612365565b60405180910390fd5b610c7b83610c736112a5565b8484036112ad565b610c858383611919565b505050565b6000600860003373ffffffffffffffffffffffffffffffffffffffff1673ffffffffffffffffffffffffffffffffffffffff16815260200190815260200160002060009054906101000a900460ff16610d18576040517f08c379a0000000000000000000000000000000000000000000000000000000008152600401610d0f906123d1565b60405180910390fd5b6000600760003373ffffffffffffffffffffffffffffffffffffffff1673ffffffffffffffffffffffffffffffffffffffff16815260200190815260200160002090506000816001015411610da2576040517f08c379a0000000000000000000000000000000000000000000000000000000008152600401610d999061243d565b60405180910390fd5b60018160020160006101000a81548160ff02191690831515021790555060008160010154905060008260010181905550610dff600660009054906101000a900473ffffffffffffffffffffffffffffffffffffffff163383610831565b5060019250505090565b610e116112a5565b73ffffffffffffffffffffffffffffffffffffffff16610e2f610e8f565b73ffffffffffffffffffffffffffffffffffffffff1614610e85576040517f08c379a0000000000000000000000000000000000000000000000000000000008152600401610e7c906121bc565b60405180910390fd5b610e8d611bb6565b565b6000600560019054906101000a900473ffffffffffffffffffffffffffffffffffffffff16905090565b60098181548110610ec957600080fd5b906000526020600020016000915054906101000a900473ffffffffffffffffffffffffffffffffffffffff1681565b606060048054610f079061213e565b80601f0160208091040260200160405190810160405280929190818152602001828054610f339061213e565b8015610f805780601f10610f5557610100808354040283529160200191610f80565b820191906000526020600020905b815481529060010190602001808311610f6357829003601f168201915b5050505050905090565b60008060016000610f996112a5565b73ffffffffffffffffffffffffffffffffffffffff1673ffffffffffffffffffffffffffffffffffffffff16815260200190815260200160002060008573ffffffffffffffffffffffffffffffffffffffff1673ffffffffffffffffffffffffffffffffffffffff16815260200190815260200160002054905082811015611056576040517f08c379a000000000000000000000000000000000000000000000000000000000815260040161104d906124cf565b60405180910390fd5b61106a6110616112a5565b858584036112ad565b600191505092915050565b60006110896110826112a5565b8484611496565b6001905092915050565b6000600160008473ffffffffffffffffffffffffffffffffffffffff1673ffffffffffffffffffffffffffffffffffffffff16815260200190815260200160002060008373ffffffffffffffffffffffffffffffffffffffff1673ffffffffffffffffffffffffffffffffffffffff16815260200190815260200160002054905092915050565b6060600980548060200260200160405190810160405280929190818152602001828054801561119e57602002820191906000526020600020905b8160009054906101000a900473ffffffffffffffffffffffffffffffffffffffff1673ffffffffffffffffffffffffffffffffffffffff1681526020019060010190808311611154575b5050505050905090565b6111b06112a5565b73ffffffffffffffffffffffffffffffffffffffff166111ce610e8f565b73ffffffffffffffffffffffffffffffffffffffff1614611224576040517f08c379a000000000000000000000000000000000000000000000000000000000815260040161121b906121bc565b60405180910390fd5b600073ffffffffffffffffffffffffffffffffffffffff168173ffffffffffffffffffffffffffffffffffffffff161415611294576040517f08c379a000000000000000000000000000000000000000000000000000000000815260040161128b90612561565b60405180910390fd5b61129d81611af0565b50565b505050565b600033905090565b600073ffffffffffffffffffffffffffffffffffffffff168373ffffffffffffffffffffffffffffffffffffffff16141561131d576040517f08c379a0000000000000000000000000000000000000000000000000000000008152600401611314906125f3565b60405180910390fd5b600073ffffffffffffffffffffffffffffffffffffffff168273ffffffffffffffffffffffffffffffffffffffff16141561138d576040517f08c379a000000000000000000000000000000000000000000000000000000000815260040161138490612685565b60405180910390fd5b80600160008573ffffffffffffffffffffffffffffffffffffffff1673ffffffffffffffffffffffffffffffffffffffff16815260200190815260200160002060008473ffffffffffffffffffffffffffffffffffffffff1673ffffffffffffffffffffffffffffffffffffffff168152602001908152602001600020819055508173ffffffffffffffffffffffffffffffffffffffff168373ffffffffffffffffffffffffffffffffffffffff167f8c5be1e5ebec7d5bd14f71427d1e84f3dd0314c0f7b2291e5b200ac8c7c3b9258360405161146b9190611f02565b60405180910390a3505050565b600061148c6114856112a5565b84846112ad565b6001905092915050565b600073ffffffffffffffffffffffffffffffffffffffff168373ffffffffffffffffffffffffffffffffffffffff161415611506576040517f08c379a00000000000000000000000000000000000000000000000000000000081526004016114fd90612717565b60405180910390fd5b600073ffffffffffffffffffffffffffffffffffffffff168273ffffffffffffffffffffffffffffffffffffffff161415611576576040517f08c379a000000000000000000000000000000000000000000000000000000000815260040161156d906127a9565b60405180910390fd5b611581838383611c59565b60008060008573ffffffffffffffffffffffffffffffffffffffff1673ffffffffffffffffffffffffffffffffffffffff16815260200190815260200160002054905081811015611607576040517f08c379a00000000000000000000000000000000000000000000000000000000081526004016115fe9061283b565b60405180910390fd5b8181036000808673ffffffffffffffffffffffffffffffffffffffff1673ffffffffffffffffffffffffffffffffffffffff16815260200190815260200160002081905550816000808573ffffffffffffffffffffffffffffffffffffffff1673ffffffffffffffffffffffffffffffffffffffff168152602001908152602001600020600082825461169a919061229d565b925050819055508273ffffffffffffffffffffffffffffffffffffffff168473ffffffffffffffffffffffffffffffffffffffff167fddf252ad1be2c89b69c2b068fc378daa952ba7f163c4a11628f55a4df523b3ef846040516116fe9190611f02565b60405180910390a3611711848484611cb1565b50505050565b61171f610b02565b61175e576040517f08c379a0000000000000000000000000000000000000000000000000000000008152600401611755906128a7565b60405180910390fd5b6000600560006101000a81548160ff0219169083151502179055507f5db9ee0a495bf2e6ff9c91a7834c1ba4fdd244a5e8aa4e537bd38aeae4b073aa6117a26112a5565b6040516117af9190611fd4565b60405180910390a1565b600073ffffffffffffffffffffffffffffffffffffffff168273ffffffffffffffffffffffffffffffffffffffff161415611829576040517f08c379a000000000000000000000000000000000000000000000000000000000815260040161182090612913565b60405180910390fd5b61183560008383611c59565b8060026000828254611847919061229d565b92505081905550806000808473ffffffffffffffffffffffffffffffffffffffff1673ffffffffffffffffffffffffffffffffffffffff168152602001908152602001600020600082825461189c919061229d565b925050819055508173ffffffffffffffffffffffffffffffffffffffff16600073ffffffffffffffffffffffffffffffffffffffff167fddf252ad1be2c89b69c2b068fc378daa952ba7f163c4a11628f55a4df523b3ef836040516119019190611f02565b60405180910390a361191560008383611cb1565b5050565b600073ffffffffffffffffffffffffffffffffffffffff168273ffffffffffffffffffffffffffffffffffffffff161415611989576040517f08c379a0000000000000000000000000000000000000000000000000000000008152600401611980906129a5565b60405180910390fd5b61199582600083611c59565b60008060008473ffffffffffffffffffffffffffffffffffffffff1673ffffffffffffffffffffffffffffffffffffffff16815260200190815260200160002054905081811015611a1b576040517f08c379a0000000000000000000000000000000000000000000000000000000008152600401611a1290612a37565b60405180910390fd5b8181036000808573ffffffffffffffffffffffffffffffffffffffff1673ffffffffffffffffffffffffffffffffffffffff168152602001908152602001600020819055508160026000828254611a729190612a57565b92505081905550600073ffffffffffffffffffffffffffffffffffffffff168373ffffffffffffffffffffffffffffffffffffffff167fddf252ad1be2c89b69c2b068fc378daa952ba7f163c4a11628f55a4df523b3ef84604051611ad79190611f02565b60405180910390a3611aeb83600084611cb1565b505050565b6000600560019054906101000a900473ffffffffffffffffffffffffffffffffffffffff16905081600560016101000a81548173ffffffffffffffffffffffffffffffffffffffff021916908373ffffffffffffffffffffffffffffffffffffffff1602179055508173ffffffffffffffffffffffffffffffffffffffff168173ffffffffffffffffffffffffffffffffffffffff167f8be0079c531659141344cd1fd0a4f28419497f9722a3daafe3b4186f6b6457e060405160405180910390a35050565b611bbe610b02565b15611bfe576040517f08c379a0000000000000000000000000000000000000000000000000000000008152600401611bf590612ad7565b60405180910390fd5b6001600560006101000a81548160ff0219169083151502179055507f62e78cea01bee320cd4e420270b5ea74000d11b0c9f74754ebdbfc544b05a258611c426112a5565b604051611c4f9190611fd4565b60405180910390a1565b611c61610b02565b15611ca1576040517f08c379a0000000000000000000000000000000000000000000000000000000008152600401611c9890612ad7565b60405180910390fd5b611cac8383836112a0565b505050565b505050565b600080fd5b600073ffffffffffffffffffffffffffffffffffffffff82169050919050565b6000611ce682611cbb565b9050919050565b611cf681611cdb565b8114611d0157600080fd5b50565b600081359050611d1381611ced565b92915050565b600060208284031215611d2f57611d2e611cb6565b5b6000611d3d84828501611d04565b91505092915050565b60008115159050919050565b611d5b81611d46565b82525050565b6000602082019050611d766000830184611d52565b92915050565b600081519050919050565b600082825260208201905092915050565b60005b83811015611db6578082015181840152602081019050611d9b565b83811115611dc5576000848401525b50505050565b6000601f19601f8301169050919050565b6000611de782611d7c565b611df18185611d87565b9350611e01818560208601611d98565b611e0a81611dcb565b840191505092915050565b60006020820190508181036000830152611e2f8184611ddc565b905092915050565b611e4081611cdb565b82525050565b6000819050919050565b611e5981611e46565b82525050565b6000606082019050611e746000830186611e37565b611e816020830185611e50565b611e8e6040830184611d52565b949350505050565b611e9f81611e46565b8114611eaa57600080fd5b50565b600081359050611ebc81611e96565b92915050565b60008060408385031215611ed957611ed8611cb6565b5b6000611ee785828601611d04565b9250506020611ef885828601611ead565b9150509250929050565b6000602082019050611f176000830184611e50565b92915050565b600080600060608486031215611f3657611f35611cb6565b5b6000611f4486828701611d04565b9350506020611f5586828701611d04565b9250506040611f6686828701611ead565b9150509250925092565b600060ff82169050919050565b611f8681611f70565b82525050565b6000602082019050611fa16000830184611f7d565b92915050565b600060208284031215611fbd57611fbc611cb6565b5b6000611fcb84828501611ead565b91505092915050565b6000602082019050611fe96000830184611e37565b92915050565b6000806040838503121561200657612005611cb6565b5b600061201485828601611d04565b925050602061202585828601611d04565b9150509250929050565b600081519050919050565b600082825260208201905092915050565b6000819050602082019050919050565b61206481611cdb565b82525050565b6000612076838361205b565b60208301905092915050565b6000602082019050919050565b600061209a8261202f565b6120a4818561203a565b93506120af8361204b565b8060005b838110156120e05781516120c7888261206a565b97506120d283612082565b9250506001810190506120b3565b5085935050505092915050565b60006020820190508181036000830152612107818461208f565b905092915050565b7f4e487b7100000000000000000000000000000000000000000000000000000000600052602260045260246000fd5b6000600282049050600182168061215657607f821691505b6020821081141561216a5761216961210f565b5b50919050565b7f4f776e61626c653a2063616c6c6572206973206e6f7420746865206f776e6572600082015250565b60006121a6602083611d87565b91506121b182612170565b602082019050919050565b600060208201905081810360008301526121d581612199565b9050919050565b7f45524332303a207472616e7366657220616d6f756e742065786365656473206160008201527f6c6c6f77616e6365000000000000000000000000000000000000000000000000602082015250565b6000612238602883611d87565b9150612243826121dc565b604082019050919050565b600060208201905081810360008301526122678161222b565b9050919050565b7f4e487b7100000000000000000000000000000000000000000000000000000000600052601160045260246000fd5b60006122a882611e46565b91506122b383611e46565b9250827fffffffffffffffffffffffffffffffffffffffffffffffffffffffffffffffff038211156122e8576122e761226e565b5b828201905092915050565b7f45524332303a206275726e20616d6f756e74206578636565647320616c6c6f7760008201527f616e636500000000000000000000000000000000000000000000000000000000602082015250565b600061234f602483611d87565b915061235a826122f3565b604082019050919050565b6000602082019050818103600083015261237e81612342565b9050919050565b7f546869732061646472657373206973206e6f742077686974656c697374656400600082015250565b60006123bb601f83611d87565b91506123c682612385565b602082019050919050565b600060208201905081810360008301526123ea816123ae565b9050919050565b7f4e6f7420656e6f75676820616c6c6f77616e636520746f20636c61696d000000600082015250565b6000612427601d83611d87565b9150612432826123f1565b602082019050919050565b600060208201905081810360008301526124568161241a565b9050919050565b7f45524332303a2064656372656173656420616c6c6f77616e63652062656c6f7760008201527f207a65726f000000000000000000000000000000000000000000000000000000602082015250565b60006124b9602583611d87565b91506124c48261245d565b604082019050919050565b600060208201905081810360008301526124e8816124ac565b9050919050565b7f4f776e61626c653a206e6577206f776e657220697320746865207a65726f206160008201527f6464726573730000000000000000000000000000000000000000000000000000602082015250565b600061254b602683611d87565b9150612556826124ef565b604082019050919050565b6000602082019050818103600083015261257a8161253e565b9050919050565b7f45524332303a20617070726f76652066726f6d20746865207a65726f2061646460008201527f7265737300000000000000000000000000000000000000000000000000000000602082015250565b60006125dd602483611d87565b91506125e882612581565b604082019050919050565b6000602082019050818103600083015261260c816125d0565b9050919050565b7f45524332303a20617070726f766520746f20746865207a65726f20616464726560008201527f7373000000000000000000000000000000000000000000000000000000000000602082015250565b600061266f602283611d87565b915061267a82612613565b604082019050919050565b6000602082019050818103600083015261269e81612662565b9050919050565b7f45524332303a207472616e736665722066726f6d20746865207a65726f20616460008201527f6472657373000000000000000000000000000000000000000000000000000000602082015250565b6000612701602583611d87565b915061270c826126a5565b604082019050919050565b60006020820190508181036000830152612730816126f4565b9050919050565b7f45524332303a207472616e7366657220746f20746865207a65726f206164647260008201527f6573730000000000000000000000000000000000000000000000000000000000602082015250565b6000612793602383611d87565b915061279e82612737565b604082019050919050565b600060208201905081810360008301526127c281612786565b9050919050565b7f45524332303a207472616e7366657220616d6f756e742065786365656473206260008201527f616c616e63650000000000000000000000000000000000000000000000000000602082015250565b6000612825602683611d87565b9150612830826127c9565b604082019050919050565b6000602082019050818103600083015261285481612818565b9050919050565b7f5061757361626c653a206e6f7420706175736564000000000000000000000000600082015250565b6000612891601483611d87565b915061289c8261285b565b602082019050919050565b600060208201905081810360008301526128c081612884565b9050919050565b7f45524332303a206d696e7420746f20746865207a65726f206164647265737300600082015250565b60006128fd601f83611d87565b9150612908826128c7565b602082019050919050565b6000602082019050818103600083015261292c816128f0565b9050919050565b7f45524332303a206275726e2066726f6d20746865207a65726f2061646472657360008201527f7300000000000000000000000000000000000000000000000000000000000000602082015250565b600061298f602183611d87565b915061299a82612933565b604082019050919050565b600060208201905081810360008301526129be81612982565b9050919050565b7f45524332303a206275726e20616d6f756e7420657863656564732062616c616e60008201527f6365000000000000000000000000000000000000000000000000000000000000602082015250565b6000612a21602283611d87565b9150612a2c826129c5565b604082019050919050565b60006020820190508181036000830152612a5081612a14565b9050919050565b6000612a6282611e46565b9150612a6d83611e46565b925082821015612a8057612a7f61226e565b5b828203905092915050565b7f5061757361626c653a2070617573656400000000000000000000000000000000600082015250565b6000612ac1601083611d87565b9150612acc82612a8b565b602082019050919050565b60006020820190508181036000830152612af081612ab4565b905091905056fea264697066735822122075519374f06aeb5dfca3a060438b4d245812c04193c1c6ad2af9bd70bd9d409964736f6c634300080a0033",
  "immutableReferences": {},
  "source": "// SPDX-License-Identifier: MIT\npragma solidity ^0.8.2;\n\n\n//@dev:this is the test version of the AthensDAO Alpha token\n//@dev: It is based on the ERC20 OpenZeppelin Template\n//@dev: Upgrade / Airdrop to $ATH Token to be added\n\n//@dev:OpenZeppelin imports for remix\n//@dev: OpenZeppelin imports for local testing\nimport \"@openzeppelin/contracts/token/ERC20/ERC20.sol\";\nimport \"@openzeppelin/contracts/token/ERC20/extensions/ERC20Burnable.sol\";\nimport \"@openzeppelin/contracts/token/ERC20/extensions/ERC20Snapshot.sol\";\nimport \"@openzeppelin/contracts/access/Ownable.sol\";\nimport \"@openzeppelin/contracts/security/Pausable.sol\";\n\ncontract Alpha is ERC20, ERC20Burnable, Pausable, Ownable {\n\n    address public ALLOWER;\n\n    constructor() ERC20(\"Alpha\", \"ALF\") {\n        _mint(msg.sender, 150 * 1); //10 ** decimals());\n        ALLOWER = msg.sender;\n    }\n\n//@dev: Member struct created when Owner approves address with allowance amount\n    struct Member {\n        address memberAddress;\n        uint amountReceivable;\n        bool tokenReceived;\n    }\n    mapping(address => Member) public members;\n\n//@dev: Check if address whitelisted or not\n    mapping(address => bool) public whitelistedAddresses;\n\n//@dev: Array to save addresses when approve() called\n    address[] public toReceiveTokens;\n\n    modifier onlyWhitelisted() {\n        require(whitelistedAddresses[msg.sender], 'Account not whitelistedAddress');\n        _;\n    }\n\n//@dev: override approve() from ERC20\n//@dev: Owner calls approve() on Address and Amount, which is saved in Members struct\n//@dev: Address also whitelisted\n//@dev: Address added toReceiveTokens array\n    function approve(address spender, uint256 amount) public override onlyOwner returns (bool) {\n        _approve(_msgSender(), spender, amount);\n\n        super.approve(spender, amount);\n\n        Member storage member = members[spender];\n\n        member.memberAddress = spender;\n        member.amountReceivable = amount;\n        member.tokenReceived = false;\n\n        whitelistedAddresses[spender] = true;\n\n        toReceiveTokens.push(spender);\n\n        return true;\n    }\n//@dev: View the array of addresses which can claim tokens\n    function viewToReceiveTokens() public view returns(address[] memory) {\n        return toReceiveTokens;\n    }\n\n//@dev: Whitelisted member can call tokenClaim to receive\n//@dev:the amount of tokens that was allowed to them by the ALLOWER(owner) for donating ETH\n\n    function tokenClaim() public returns(bool) {\n        require(whitelistedAddresses[msg.sender], \"This address is not whitelisted\"); //onlyWhitelisted\n\n        Member storage member = members[msg.sender];\n\n        require(member.amountReceivable > 0, \"Not enough allowance to claim\");\n\n        member.tokenReceived = true;\n\n        uint amountToReceive = member.amountReceivable;\n        member.amountReceivable = 0;\n        transferFrom(ALLOWER, msg.sender ,amountToReceive);\n\n        // To remove address from toReceiveTokens array\n\n        return true;\n    }\n\n    function pause() public onlyOwner {\n        _pause();\n    }\n\n    function unpause() public onlyOwner {\n        _unpause();\n    }\n\n    function mint(address to, uint256 amount) public onlyOwner {\n        _mint(to, amount);\n    }\n\n//@dev: capture that address in a Struct (Mapping)\n//@dev: build a function to retrieve those addresses. (Javascript function to iterate through the amount of Token Holders)\n//@dev: perfect \"upgrade\" - built the Alfa conttract such as the owners of the Alpha token, can call the Upgrade function to burn the Alpha and mint the Athens Token.\n//@dev: Used the token transfer params to create a struct of each Token Transfer from the Owner of the contract to a specified member address\n    function _beforeTokenTransfer(address from, address to, uint256 amount)\n        internal\n        whenNotPaused\n        override(ERC20)\n    {\n        super._beforeTokenTransfer(from, to, amount);\n\n    }\n\n}\n\n",
  "sourcePath": "/home/h1c0/Desktop/0StartHere/GithubCommits/my-dapp/contracts/Alpha.sol",
  "compiler": {
    "name": "solc",
    "version": "0.8.10+commit.fc410830.Emscripten.clang"
  },
  "schemaVersion": "3.4.4",
  "updatedAt": "2022-01-13T07:43:09.335Z",
  "devdoc": {
    "kind": "dev",
    "methods": {
      "allowance(address,address)": {
        "details": "See {IERC20-allowance}."
      },
      "approve(address,uint256)": {
        "details": "See {IERC20-approve}. Requirements: - `spender` cannot be the zero address."
      },
      "balanceOf(address)": {
        "details": "See {IERC20-balanceOf}."
      },
      "burn(uint256)": {
        "details": "Destroys `amount` tokens from the caller. See {ERC20-_burn}."
      },
      "burnFrom(address,uint256)": {
        "details": "Destroys `amount` tokens from `account`, deducting from the caller's allowance. See {ERC20-_burn} and {ERC20-allowance}. Requirements: - the caller must have allowance for ``accounts``'s tokens of at least `amount`."
      },
      "decimals()": {
        "details": "Returns the number of decimals used to get its user representation. For example, if `decimals` equals `2`, a balance of `505` tokens should be displayed to a user as `5.05` (`505 / 10 ** 2`). Tokens usually opt for a value of 18, imitating the relationship between Ether and Wei. This is the value {ERC20} uses, unless this function is overridden; NOTE: This information is only used for _display_ purposes: it in no way affects any of the arithmetic of the contract, including {IERC20-balanceOf} and {IERC20-transfer}."
      },
      "decreaseAllowance(address,uint256)": {
        "details": "Atomically decreases the allowance granted to `spender` by the caller. This is an alternative to {approve} that can be used as a mitigation for problems described in {IERC20-approve}. Emits an {Approval} event indicating the updated allowance. Requirements: - `spender` cannot be the zero address. - `spender` must have allowance for the caller of at least `subtractedValue`."
      },
      "increaseAllowance(address,uint256)": {
        "details": "Atomically increases the allowance granted to `spender` by the caller. This is an alternative to {approve} that can be used as a mitigation for problems described in {IERC20-approve}. Emits an {Approval} event indicating the updated allowance. Requirements: - `spender` cannot be the zero address."
      },
      "name()": {
        "details": "Returns the name of the token."
      },
      "owner()": {
        "details": "Returns the address of the current owner."
      },
      "paused()": {
        "details": "Returns true if the contract is paused, and false otherwise."
      },
      "renounceOwnership()": {
        "details": "Leaves the contract without owner. It will not be possible to call `onlyOwner` functions anymore. Can only be called by the current owner. NOTE: Renouncing ownership will leave the contract without an owner, thereby removing any functionality that is only available to the owner."
      },
      "symbol()": {
        "details": "Returns the symbol of the token, usually a shorter version of the name."
      },
      "totalSupply()": {
        "details": "See {IERC20-totalSupply}."
      },
      "transfer(address,uint256)": {
        "details": "See {IERC20-transfer}. Requirements: - `recipient` cannot be the zero address. - the caller must have a balance of at least `amount`."
      },
      "transferFrom(address,address,uint256)": {
        "details": "See {IERC20-transferFrom}. Emits an {Approval} event indicating the updated allowance. This is not required by the EIP. See the note at the beginning of {ERC20}. Requirements: - `sender` and `recipient` cannot be the zero address. - `sender` must have a balance of at least `amount`. - the caller must have allowance for ``sender``'s tokens of at least `amount`."
      },
      "transferOwnership(address)": {
        "details": "Transfers ownership of the contract to a new account (`newOwner`). Can only be called by the current owner."
      }
    },
    "version": 1
  },
  "userdoc": {
    "kind": "user",
    "methods": {},
    "version": 1
  }
}